:020000040800F2
:08000000005000200900000877
:1000080000F036F87047000080B483B000AF786025
:1000180000BF7B685A1E7A60002BFAD100BF00BF70
:100028000C37BD4680BC704780B483B000AF0E4B20
:100038001B680D4A43F0080313600C4B1B687B6078
:100048007B6823F070637B607B6843F000537B60C0
:100058007B6823F470037B60044A7B68136000BFED
:100068000C37BD4680BC704718100240040C014094
:1000780080B500AFFFF7D8FF094B4FF400421A8054
:100088000848FFF7C1FF064B1B889BB2044AC3F31D
:100098000E039BB213800348FFF7B6FFECE700BFDF
:1000A8000C0C014040420F00F8B500BFF8BC08BC7A
:1000B8009E467047F8B500BFF8BC08BC9E4670471E
:0400000508000009E6
:00000001FF
