:020000040800F2
:10000000005000200D0100085101000851010008B6
:1000100051010008510100085101000800000000D2
:100020000000000000000000000000005101000876
:1000300051010008000000005101000851010008B2
:100040005101000851010008510100085101000848
:100050005101000851010008510100085101000838
:100060005101000851010008510100085101000828
:100070005101000851010008510100085101000818
:100080005101000851010008510100085101000808
:1000900051010008510100085101000851010008F8
:1000A00051010008510100085101000851010008E8
:1000B00051010008510100085101000851010008D8
:1000C00051010008510100085101000851010008C8
:1000D00051010008510100085101000851010008B8
:1000E0005101000851010008510100080000000002
:1000F0000000000000000000000000000000000000
:0C01000000000000000000005FF808F1A3
:10010C00002103E00A4B5B584350043109480A4B69
:10011C0042189A42F6D3094A02E0002342F8043B03
:10012C00074B9A42F9D300F04BF800F02DF87047CA
:10013C00DC08000800000020280000202800002017
:10014C0028000020FEE7000082B00190019B0BB953
:10015C0002B07047019B013B0193F7E701210C2092
:10016C0000F004BA4FF4004307B5ADF8043041F287
:10017C000303044801A9ADF8063000F0CCFA03B033
:10018C005DF804FB000C014008B5FFF7E7FFFFF733
:10019C00E9FF094D094C28464FF4004100F027FBBC
:1001AC002046FFF7D1FF4FF40041284600F01DFB1D
:1001BC002046FFF7C9FFEEE7000C0140E093040076
:1001CC00374B82B01A6842F001021A605968354AFE
:1001DC000A405A601A6822F0847222F480321A6043
:1001EC001A6822F480221A605A6822F4FE025A60BD
:1001FC004FF41F029A600022009201921A6842F496
:10020C0080321A601A6802F400320192009A0132AC
:10021C000092019A1AB9009AB2F5A06FF2D11A683D
:10022C0012F4003218BF01220192019A012A30D136
:10023C001D4A116841F010011160116821F0030191
:10024C001160116841F0020111605A685A605A68D5
:10025C005A605A6842F480625A605A6822F47C12DE
:10026C005A605A6842F4E8125A601A6842F0807276
:10027C001A601A689201FCD55A6822F003025A607F
:10028C005A6842F002025A605A6802F00C02082ABC
:10029C00FAD14FF00062054B9A6002B0704700BF74
:1002AC00001002400000FFF80020024000ED00E0CA
:1002BC001049114A4B6803F00C03082B0AD00F4B62
:1002CC0013604B68C3F30313134419791368CB40C1
:1002DC00136070474B684868C3F38343C00303F152
:1002EC00020302D406484343EAE748688003F9D482
:1002FC000248F8E7001002400000002000127A00CB
:10030C0000093D000D4B1A6842F001021A60596851
:10031C000B4A0A405A601A6822F0847222F4803226
:10032C001A601A6822F480221A605A6822F4FE02BB
:10033C005A604FF41F029A60704700BF00100240D1
:10034C000000FFF80C4BB0F5803F1A6822F48032A5
:10035C001A601A6822F480221A6003D0B0F5802F3C
:10036C0005D070471A6842F480321A6070471A68D8
:10037C0042F4A022F9E700BF00100240002382B033
:10038C00094901930B68019A03F40033013201927D
:10039C00019AB2F5A06F01D0002BF3D00868C0F31E
:1003AC00404002B0704700BF00100240034A13687F
:1003BC0023F0F80343EAC0031360704700100240B7
:1003CC00014B1860704700BF00004242034A53685B
:1003DC0023F47C130B43034353607047001002401B
:1003EC00014B1866704700BF00004242034A536835
:1003FC0023F0030303435360704700BF0010024017
:10040C00024B586800F00C00704700BF001002400F
:10041C00034A536823F0F00303435360704700BF53
:10042C0000100240034A536823F4E0630343536013
:10043C00704700BF00100240034A536823F4605316
:10044C0043EAC0035360704700100240044B5A7AD1
:10045C0011B110435872704722EA0000FAE700BF4E
:10046C0000100240014BC3F8D80070470000424214
:10047C00034A536823F4404303435360704700BF5F
:10048C00001002400022084B012883F8202083F83A
:10049C00202002D0042803D0704783F82000704736
:1004AC00052283F82020704700100240014BC3F84E
:1004BC008004704700004242024A136A03431362ED
:1004CC00704700BF00100240014BC3F83C0470475A
:1004DC00000042421B4A10B5536803F00C03082B72
:1004EC001FD0194B036053681849C3F30313CC5C3A
:1004FC000368E34043605468C4F302240C5D23FAA0
:10050C0004F484605468C4F3C2240C5DE340C360FB
:10051C005268C2F3813211440A7CB3FBF2F30361DB
:10052C0010BD53685168C3F38343CC0303F102033A
:10053C0002D407494B43D5E751688903F9D40249E2
:10054C00F8E700BF0010024000127A0014000020EF
:10055C0000093D00044B5A6911B1104358617047B2
:10056C0022EA0000FAE700BF00100240044B9A692F
:10057C0011B110439861704722EA0000FAE700BFFE
:10058C0000100240044BDA6911B11043D861704776
:10059C0022EA0000FAE700BF00100240044BDA68C0
:1005AC0011B11043D860704722EA0000FAE700BF8F
:1005BC0000100240044B1A6911B1104318617047C6
:1005CC0022EA0000FAE700BF00100240014BC3F81A
:1005DC004004704700004242014BD864704700BF92
:1005EC0000004242014BD871704700BF001002401E
:1005FC004209012A074B07D11B6800F01F0023FAA0
:10060C0000F000F001007047022A0CBF1B6A5B6A05
:10061C00F3E700BF00100240024A536A43F08073B4
:10062C005362704700100240034B9B68184214BF82
:10063C0001200020704700BF00100240014B98724F
:10064C00704700BF0010024008B5264B984209D1F4
:10065C0001210420FFF7A2FF00210420BDE808407F
:10066C00FFF79CBF204B984206D101210820FFF7D1
:10067C0095FF00210820F1E71C4B984206D101217F
:10068C001020FFF78BFF00211020E7E7184B984252
:10069C0006D101212020FFF781FF00212020DDE77A
:1006AC00144B984206D101214020FFF777FF00211F
:1006BC004020D3E7104B984206D101218020FFF750
:1006CC006DFF00218020C9E70C4B984208D1012115
:1006DC004FF48070FFF762FF00214FF48070BDE78C
:1006EC0008BD00BF00080140000C01400010014093
:1006FC000014014000180140001C01400020014082
:10070C00012108B50846FFF749FFBDE80840002164
:10071C000120FFF743BF2DE9F041CB780F88DA06B3
:10072C0048BF8A7803F00F0548BF15430A78D2B149
:10073C0000214FF0010C4FF00F0E02680CFA01F67D
:10074C0036EA07040BD18C000EFA04F822EA0802F0
:10075C0005FA04F4282B42EA040225D14661013142
:10076C000829EBD10260FF2F1CD900214FF0010C9E
:10077C004FF00F0E426801F108040CFA04F434EA4D
:10078C0007060BD18E000EFA06F822EA080205FACB
:10079C0006F6282B42EA06020AD1446101310829E7
:1007AC00E9D14260BDE8F081482B08BF0661D6E76D
:1007BC00482B08BF0461F1E74FF6FF73038040F24A
:1007CC000243438070478368194214BF0120002004
:1007DC007047806880B27047C368194214BF01200B
:1007EC0000207047C06880B270470161704741615A
:1007FC0070470AB10161704741617047C160704731
:10080C0041F48033836181618361836983697047BB
:10081C00054A136823F07F031B041B0C0B4343EAAC
:10082C0000131360704700BF00000140014BD861FA
:10083C00704700BF000020420028164A30B500F473
:10084C004015B4BFD3695368B5F5401F84B210D1BD
:10085C00556823F0706325F07065556019B1420D31
:10086C001201944023430B4A0028B4BFD361536058
:10087C0030BDC2024DBF0322420D1201C0F303452D
:10088C004CBFAA4004FA02F223EA020343F070635D
:10089C00E4E700BF0000014010B50F2401F0030392
:1008AC0001F0FC0101F1804101F580318A689B0067
:1008BC009C4022EA04028A608A689840104388604F
:1008CC0010BD024BC3F8DC00704700BF0000204293
:1008DC0000A24A0400000000000000000102030412
:1008EC0006070809000000000102030401020304CA
:0808FC000607080902040608C2
:040000050800010DE1
:00000001FF
