:020000040800F2
:10000000005000200D0100084D0100084D010008BE
:100010004D0100084D0100084D01000800000000DE
:100020000000000000000000000000004D0100087A
:100030004D010008000000004D0100084D010008BE
:100040004D0100084D0100084D0100084D01000858
:100050004D0100084D0100084D0100084D01000848
:100060004D0100084D0100084D0100084D01000838
:100070004D0100084D0100084D0100084D01000828
:100080004D0100084D0100084D0100084D01000818
:100090004D0100084D0100084D0100084D01000808
:1000A0004D0100084D0100084D0100084D010008F8
:1000B0004D0100084D0100084D0100084D010008E8
:1000C0004D0100084D0100084D0100084D010008D8
:1000D0004D0100084D0100084D0100084D010008C8
:1000E0004D0100084D0100084D010008000000000E
:1000F0000000000000000000000000000000000000
:0C01000000000000000000005FF808F1A3
:10010C00002103E0094B5B58435004310848094B6C
:10011C0042189A42F6D3084A02E0002342F8043B04
:10012C00064B9A42F9D300F029F87047B401000845
:10013C000000002000000020000000200000002033
:10014C00FEE7000082B00190019B5A1E0192002B29
:10015C00FAD102B07047084A936943F008039361DF
:10016C00A2F58832D2F8043C23F07F6343F00053AD
:10017C00C2F8043C704700BF0010024008B5FFF7FE
:10018C00EAFF48F20004064906488C81FFF7DAFFC3
:10019C008B89C3F30E038B81FFF7D4FFF5E700BF08
:0801AC00000C014040420F006D
:040000050800010DE1
:00000001FF
